:020000040800F2
:100000000000012009040008ED030008EF030008C8
:10001000F1030008F3030008F503000800000000E6
:10002000000000000000000000000000F7030008CE
:10003000F903000800000000FB030008FD030008AE
:10004000510400085104000851040008510400083C
:10005000510400085104000851040008510400082C
:10006000510400085104000851040008510400081C
:10007000510400085104000851040008510400080C
:1000800051040008510400085104000851040008FC
:1000900051040008510400085104000851040008EC
:1000A00051040008510400085104000851040008DC
:1000B00051040008510400085104000851040008CC
:1000C00051040008510400085104000851040008BC
:1000D00051040008510400085104000851040008AC
:1000E000510400085104000851040008510400089C
:1000F000510400085104000851040008510400088C
:10010000510400085104000851040008510400087B
:10011000510400085104000851040008510400086B
:10012000510400085104000851040008510400085B
:1001300000000000000000000000000000000000BF
:1001400000000000000000000000000000000000AF
:10015000000000000000000000000000000000009F
:10016000000000000000000000000000000000008F
:10017000000000000000000000000000000000007F
:10018000000000000000000000000000000000006F
:10019000000000000000000000000000000000005F
:1001A000000000000000000000000000000000004F
:1001B000000000000000000000000000000000003F
:1001C000000000000000000000000000000000002F
:1001D000000000000000000000000000000000001F
:0401E0005FF8E0F1F3
:1001E40010B5054C237833B9044B13B10448AFF36D
:1001F40000800123237010BD3C0400200000000097
:10020400C80F000808B5034B1BB103490348AFF3FB
:10021400008008BD0000000040040020C80F000852
:1002240030B589B0002404940594069407941C4BBB
:100234009A6942F080029A619A6902F080020192FE
:10024400019A9A6942F010029A619A6902F01002C6
:100254000292029A9A6942F004029A619B6903F03D
:1002640004030393039B0F4D01224FF4E0612846DE
:1002740000F0BDFA4FF4E063049301230593069460
:100284000223079304A9284600F08AF9072304935C
:100294000594069404A9044800F082F909B030BD1D
:1002A40000100240001C01400010014008B5014646
:1002B4000122024800F09BFA08BD00BF001C014067
:1002C40008B501460022024800F091FA08BD00BFBB
:1002D400001C014008B50121164800F081FA0128EC
:1002E40018D04FF48070FFF7EBFF0221114800F0A3
:1002F40077FA012813D04FF40070FFF7E1FF0421CF
:100304000C4800F06DFA01280ED04FF48060FFF71E
:10031400D7FF08BD4FF48070FFF7C8FFE5E74FF43F
:100324000070FFF7C3FFEAE74FF48060FFF7BEFFFA
:10033400EFE700BF0010014072B6FEE700B591B0D0
:100344002822002106A800F07BFD002301930293DC
:100354000393049305930223069301230A93102322
:100364000B9306A800F060FA68B90F2301930021EB
:10037400029103910491059101A800F087FC20B932
:1003840011B05DF804FBFFF7D7FFFFF7D5FF08B501
:1003940000F084F8FFF7D2FFFFF742FFFFF79AFF60
:1003A400FCE7000082B00E4B9A6942F001029A61A8
:1003B4009A6902F001020092009ADA6942F08052CE
:1003C400DA61DB6903F080530193019B054A5368AA
:1003D40023F0E06343F00073536002B0704700BF42
:1003E4000010024000000140FEE7FEE7FEE7FEE7E2
:1003F400FEE770477047704708B500F061F808BD24
:1004040070470000FFF7FCFF0B480C490C4A00231F
:1004140002E0D458C4500433C4188C42F9D3094AB6
:10042400094C002301E013600432A242FBD300F024
:10043400E3FCFFF7ACFF7047000000203C04002001
:10044400141000083C04002060040020FEE70000B3
:1004540010B504460E4B18784FF47A73B3FBF0F3DF
:100464000C4A1068B0FBF3F000F086F868B90F2C62
:1004740001D901200AE0002221464FF0FF3000F0AC
:1004840043F8054B1C60002000E0012010BD00BFB4
:1004940004000020000000200800002008B5074ADE
:1004A400136843F010031360032000F01BF80F20BF
:1004B400FFF7CEFFFFF776FF002008BD00200240C3
:1004C400034A1168034B1B780B441360704700BF49
:1004D4005804002004000020014B1868704700BF36
:1004E40058040020074AD36823F4E0631B041B0C60
:1004F400000200F4E060034343F0BF6343F40033BD
:10050400D360704700ED00E000B5194BDB68C3F31E
:100514000223C3F1070CBCF1040F28BF4FF0040CF5
:1005240003F1040EBEF1060F18D9033B4FF0FF3E52
:100534000EFA0CFC21EA0C0199400EFA03F322EAAC
:100544000303194300280BDB0901C9B200F1604021
:1005540000F5614080F800135DF804FB0023E5E733
:1005640000F00F000901C9B2024B1954F4E700BFAF
:1005740000ED00E014ED00E00138B0F1807F0BD213
:100584004FF0E0235861054AF02182F8231000203F
:10059400986107221A6170470120704700ED00E05E
:1005A40070B582B00024A446B0E0874DAA4210D0B2
:1005B40007D9864DAA420CD005F58035AA4208D049
:1005C40013E0A5F58015AA4203D005F57025AA42CB
:1005D40007D18A68002A62D0012A5BD043610824CB
:1005E40003E0A5F58015AA42F3D0BEF1FF0F58D859
:1005F4000646BEF1FF0F56D84FEA8C0233680F252A
:10060400954023EA050304FA02F2134333604B686E
:1006140013F0805F78D06E4B9A6942F001029A61C0
:100624009B6903F001030193019B4FEA9C02951C13
:10063400684B53F825600CF003039D000F23AB4077
:1006440026EA0306644B984233D003F5806398424C
:1006540000F0988003F58063984200F0958003F5DC
:100664008063984200F0928003F58063984200F022
:100674008F8003F58063984219D006231AE0CC6872
:10068400B3E7CC680434B0E7CC680834ADE7CC6891
:100694000C34AAE703610824A7E70024A5E704248F
:1006A400A3E7061DA5E7ACF108029200A6E705231F
:1006B40000E00023AB4033430232464D45F822307C
:1006C4004B6813F4801F65D0444A936843EA0E03D1
:1006D40093604B6813F4001F62D0404AD36843EA26
:1006E4000E03D3604B6813F4003F5FD03B4A53685A
:1006F40043EA0E0353604B6813F4803F5CD0374ADF
:10070400136843EA0E0313600CF1010C0A6832FA11
:100714000CF357D0012303FA0CF302EA030E33EA75
:100724000202F1D14A68122A3FF63FAF122A3FF67D
:100734005CAF01A555F822F0D70500088306000830
:100744008D0600089F060008EF050008EF05000865
:10075400EF050008EF050008EF050008EF050008A5
:10076400EF050008EF050008EF050008EF05000895
:10077400EF050008EF050008EF05000887060008EC
:1007840093060008012395E7022393E7032391E7E7
:1007940004238FE7114A936823EA0E03936098E7D2
:1007A4000E4AD36823EA0E03D3609BE70B4A5368CF
:1007B40023EA0E0353609EE7084A136823EA0E03F4
:1007C4001360A1E702B070BD0000221000003110D8
:1007D40000100240000001400008014000040140F4
:1007E4008368194201D001207047002070470AB184
:1007F40001617047090401617047000082B0084B31
:100804001B68084AA2FB03235B0A00FB03F3019362
:1008140000BF019B5A1E0192002BF9D102B0704710
:1008240000000020D34D6210002800F0F18170B563
:1008340082B00446036813F0010F2CD0994B5B6817
:1008440003F00C03042B1DD0964B5B6803F00C03E0
:10085400082B12D06368B3F5803F41D0002B55D1EB
:1008640003F1804303F504331A6822F480321A60DA
:100874001A6822F480221A6037E08A4B5B6813F40A
:10088400803FE7D0874B1B6813F4003F03D06368B5
:10089400002B00F0BF81236813F0020F75D0814B49
:1008A4005B6813F00C0F5FD07E4B5B6803F00C03A6
:1008B400082B54D02369002B00F08A807A4B012244
:1008C4001A60FFF709FE0546764B1B6813F0020F0A
:1008D40075D1FFF701FE401B0228F5D903209EE1E4
:1008E400704A136843F480331360636843B3FFF7BB
:1008F400F3FD05466B4B1B6813F4003FCBD1FFF7A8
:10090400EBFD401B6428F5D9032088E1B3F5A02F43
:1009140009D0644B1A6822F480321A601A6822F4EF
:1009240080221A60E1E703F18043A3F53C331A689F
:1009340042F480221A601A6842F480321A60D4E7C2
:10094400FFF7CAFD0546574B1B6813F4003FA2D0BE
:10095400FFF7C2FD401B6428F5D903205FE1514B2A
:100964005B6813F4803FA5D14E4B1B6813F0020F54
:1009740003D02369012B40F04F814A4A136823F0C6
:10098400F803616943EAC1031360236813F0080F95
:1009940033D0A369002B5CD0434B0122C3F88024DD
:1009A400FFF79AFD05463F4B5B6A13F0020F21D116
:1009B400FFF792FD401B0228F5D903202FE1394AA5
:1009C400136823F0F803616943EAC1031360DCE7A9
:1009D400354B00221A60FFF77FFD0546314B1B683B
:1009E40013F0020FD1D0FFF777FD401B0228F5D991
:1009F400032014E10120FFF701FF236813F0040F23
:100A040000F09680274BDB6913F0805F34D1254BCF
:100A1400DA6942F08052DA61DB6903F080530193B2
:100A2400019B0125214B1B6813F4807F26D0E368CA
:100A3400012B3DD0002B53D103F1804303F5043344
:100A44001A6A22F001021A621A6A22F004021A6275
:100A540033E0154B0022C3F88024FFF73DFD054623
:100A6400104B5B6A13F0020FC7D0FFF735FD401B34
:100A74000228F5D90320D2E00025D3E70B4A1368F6
:100A840043F480731360FFF727FD0646074B1B688A
:100A940013F4807FCBD1FFF71FFD801B6428F5D9A9
:100AA4000320BCE0001002400000424200700040FD
:100AB4005F4A136A43F001031362E36833B3FFF739
:100AC4000BFD06465A4B1B6A13F0020F2FD1FFF79A
:100AD40003FD801B41F288339842F3D903209EE042
:100AE400052B09D0524B1A6A22F001021A621A6AC3
:100AF40022F004021A62E0E74D4B1A6A42F0040243
:100B04001A621A6A42F001021A62D6E7FFF7E4FC9D
:100B14000646474B1B6A13F0020F08D0FFF7DCFCB4
:100B2400801B41F288339842F3D9032077E0E5B97A
:100B3400E369002B72D03E4A526802F00C02082A84
:100B440056D0022B17D03B4B00221A66FFF7C4FC89
:100B54000446374B1B6813F0007F47D0FFF7BCFCFB
:100B6400001B0228F5D9032059E0314AD36923F048
:100B74008053D361DCE72F4B00221A66FFF7ACFCED
:100B840005462B4B1B6813F0007F06D0FFF7A4FC2F
:100B9400401B0228F5D9032041E0236AB3F5803FC6
:100BA4001AD023494B6823F47413226A606A0243FF
:100BB40013434B601F4B01221A66FFF78DFC04465A
:100BC4001B4B1B6813F0007F0ED1FFF785FC001B45
:100BD4000228F5D9032022E0154A536823F4003390
:100BE400A1680B435360DCE7002018E0002016E006
:100BF400012B16D00E4B5B6803F48031226A9142BC
:100C040011D103F47013626A93420ED1002006E0FE
:100C140001207047012002E0012000E0002002B022
:100C240070BD0120FBE70120F9E70120F7E700BFD1
:100C340000100240000042420F4B5B6803F00C02BC
:100C4400082A01D00D487047C3F383420C49885CDD
:100C540013F4803F0BD0084B5B68C3F34043094A4D
:100C6400D35C064A02FB00F0B0FBF3F07047064B7E
:100C740003FB00F0704700BF0010024000127A002E
:100C8400F00F00080010000800093D00002800F0E3
:100C9400A08070B50D460446524B1B6803F0070351
:100CA4008B420BD24F4A136823F007030B431360A4
:100CB400136803F007038B4240F08D80236813F020
:100CC400020F17D013F0040F04D0474A536843F4BB
:100CD400E0635360236813F0080F04D0424A53685A
:100CE40043F460535360404A536823F0F003A1680F
:100CF4000B435360236813F0010F31D06368012B59
:100D040020D0022B25D0384A126812F0020F64D08A
:100D140035494A6822F0030213434B60FFF7DCFBBA
:100D24000646314B5B6803F00C036268B3EB820F39
:100D340016D0FFF7D1FB801B41F288339842F0D9DB
:100D4400032045E0284A126812F4003FE0D1012054
:100D54003EE0254A126812F0007FD9D1012037E025
:100D6400204B1B6803F00703AB420AD91D4A1368E2
:100D740023F007032B431360136803F00703AB420C
:100D84002DD1236813F0040F06D0174A536823F4B7
:100D9400E063E1680B435360236813F0080F07D046
:100DA400114A536823F46053216943EAC103536031
:100DB400FFF742FF0C4B5B68C3F303130B4AD35C8E
:100DC400D8400B4B18600B4B1868FFF741FB002011
:100DD40070BD012070470120FAE70120F8E70120E7
:100DE400F6E700BF0020024000100240E00F0008B8
:100DF400000000200800002070B50D4E0D4D761B3C
:100E0400B61006D0002455F8043B01349847A64296
:100E1400F9D1094E094D00F0D5F8761BB61006D06D
:100E2400002455F8043B01349847A642F9D170BD1B
:100E34000810000808100008101000080810000826
:100E4400830730B548D0541E002A3FD00346CAB2A7
:100E540001E0013C3AD303F8012B9D07F9D1032C9F
:100E64002DD9CDB245EA05250F2C45EA054536D9DD
:100E7400A4F1100222F00F0C03F1200EE6444FEA15
:100E8400121C03F1100242E9045542E902551032E2
:100E94007245F8D10CF1010214F00C0F03EB0212AD
:100EA40004F00F0C13D0ACF1040323F00303043358
:100EB400134442F8045B9342FBD10CF003042CB1BD
:100EC400CAB21C4403F8012B9C42FBD130BD6446DA
:100ED4001346002CF4D1F9E703461446BFE71A463B
:100EE400A446E0E7024B13B1024800F005B870478E
:100EF40000000000090F0008002301461A461846A6
:100F040000F01AB838B5084B084D5B1B9C1007D08D
:100F1400043B1D44013C55F804399847002CF9D191
:100F2400BDE8384000F054B8141000081010000850
:100F3400704700BF704700BF2DE9F047DFF87CA081
:100F44000646DAF8000098460F469146FFF7F0FF90
:100F54001B4B1B68D3F8484124B365681F2D26DC5E
:100F64005EB96B1C0235DAF80000636044F8257042
:100F7400FFF7E0FF0020BDE8F087012304EB8501C3
:100F8400C1F88890D4F88821AB401A43022EC4F8E3
:100F94008821C1F80881E4D1D4F88C211343C4F822
:100FA4008C31DEE703F5A674C3F84841D5E7DAF8D7
:100FB4000000FFF7BFFF4FF0FF30DCE738040020EC
:100FC40004100008F8B500BFF8BC08BC9E46704782
:0C0FD400F8B500BFF8BC08BC9E46704792
:100FE00000000000000000000102030406070809D9
:100FF00002030405060708090A0B0C0D0E0F10105A
:081000000102000010000020B5
:08100800E90E000809020008CE
:04101000E5010008EE
:101014000024F400010000001000000000000000A3
:1010240000000000FC02002064030020CC03002028
:1010340000000000000000000000000000000000AC
:10104400000000000000000000000000000000009C
:10105400000000000000000000000000000000008C
:10106400000000000000000000000000000000007C
:10107400000000000000000000000000000000006C
:10108400000000000000000000000000000000005C
:10109400000000000000000000000000000000004C
:1010A400000000000000000000000000000000003C
:1010B400000000000000000000000000000000002C
:1010C400000000000000000001000000000000001B
:1010D4000E33CDAB34126DE6ECDE05000B000000E0
:1010E40000000000000000000000000000000000FC
:1010F40000000000000000000000000000000000EC
:1011040000000000000000000000000000000000DB
:1011140000000000000000000000000000000000CB
:0C14440000000000000000005C0400201C
:0400000508000409E2
:00000001FF
